{
  "contractName": "Census",
  "abi": [
    {
      "inputs": [],
      "payable": false,
      "stateMutability": "nonpayable",
      "type": "constructor",
      "constant": false
    },
    {
      "anonymous": false,
      "inputs": [
        {
          "indexed": true,
          "internalType": "address",
          "name": "wallet",
          "type": "address"
        },
        {
          "indexed": false,
          "internalType": "uint256",
          "name": "_householdID",
          "type": "uint256"
        }
      ],
      "name": "ProductCreated",
      "type": "event",
      "constant": false
    },
    {
      "constant": false,
      "inputs": [
        {
          "internalType": "string",
          "name": "_name",
          "type": "string"
        },
        {
          "internalType": "string",
          "name": "_race",
          "type": "string"
        },
        {
          "internalType": "string",
          "name": "_ipfshash",
          "type": "string"
        },
        {
          "internalType": "string",
          "name": "_proofofkidsipfshash",
          "type": "string"
        },
        {
          "internalType": "string",
          "name": "_role",
          "type": "string"
        },
        {
          "internalType": "string",
          "name": "_country",
          "type": "string"
        },
        {
          "internalType": "bool",
          "name": "_alive",
          "type": "bool"
        },
        {
          "internalType": "uint256",
          "name": "_householdID",
          "type": "uint256"
        },
        {
          "internalType": "string",
          "name": "_encrypted_email",
          "type": "string"
        }
      ],
      "name": "createPerson",
      "outputs": [],
      "payable": false,
      "stateMutability": "nonpayable",
      "type": "function"
    },
    {
      "constant": true,
      "inputs": [
        {
          "internalType": "uint256",
          "name": "_householdID",
          "type": "uint256"
        },
        {
          "internalType": "uint256",
          "name": "_member",
          "type": "uint256"
        }
      ],
      "name": "getfamilymember",
      "outputs": [
        {
          "internalType": "uint256",
          "name": "",
          "type": "uint256"
        }
      ],
      "payable": false,
      "stateMutability": "view",
      "type": "function"
    },
    {
      "constant": true,
      "inputs": [
        {
          "internalType": "uint256",
          "name": "_householdID",
          "type": "uint256"
        }
      ],
      "name": "getmemberslenght",
      "outputs": [
        {
          "internalType": "uint256",
          "name": "",
          "type": "uint256"
        }
      ],
      "payable": false,
      "stateMutability": "view",
      "type": "function"
    },
    {
      "constant": false,
      "inputs": [],
      "name": "getpersonsstruct",
      "outputs": [
        {
          "internalType": "string",
          "name": "",
          "type": "string"
        }
      ],
      "payable": false,
      "stateMutability": "nonpayable",
      "type": "function"
    },
    {
      "constant": true,
      "inputs": [
        {
          "internalType": "uint256",
          "name": "",
          "type": "uint256"
        }
      ],
      "name": "hos",
      "outputs": [
        {
          "internalType": "uint256",
          "name": "hid",
          "type": "uint256"
        }
      ],
      "payable": false,
      "stateMutability": "view",
      "type": "function"
    },
    {
      "constant": true,
      "inputs": [
        {
          "internalType": "uint256",
          "name": "",
          "type": "uint256"
        }
      ],
      "name": "households",
      "outputs": [
        {
          "internalType": "uint256",
          "name": "hid",
          "type": "uint256"
        },
        {
          "internalType": "string",
          "name": "encrypted_email",
          "type": "string"
        },
        {
          "internalType": "string",
          "name": "proofofkids",
          "type": "string"
        },
        {
          "internalType": "address",
          "name": "submitter",
          "type": "address"
        }
      ],
      "payable": false,
      "stateMutability": "view",
      "type": "function"
    },
    {
      "constant": true,
      "inputs": [],
      "name": "lasthouseholdID",
      "outputs": [
        {
          "internalType": "uint256",
          "name": "",
          "type": "uint256"
        }
      ],
      "payable": false,
      "stateMutability": "view",
      "type": "function"
    },
    {
      "constant": true,
      "inputs": [],
      "name": "name",
      "outputs": [
        {
          "internalType": "string",
          "name": "",
          "type": "string"
        }
      ],
      "payable": false,
      "stateMutability": "view",
      "type": "function"
    },
    {
      "constant": true,
      "inputs": [],
      "name": "personCount",
      "outputs": [
        {
          "internalType": "uint256",
          "name": "",
          "type": "uint256"
        }
      ],
      "payable": false,
      "stateMutability": "view",
      "type": "function"
    },
    {
      "constant": true,
      "inputs": [
        {
          "internalType": "uint256",
          "name": "",
          "type": "uint256"
        }
      ],
      "name": "persons",
      "outputs": [
        {
          "internalType": "uint256",
          "name": "id",
          "type": "uint256"
        },
        {
          "internalType": "string",
          "name": "name",
          "type": "string"
        },
        {
          "internalType": "string",
          "name": "ipfsHash",
          "type": "string"
        },
        {
          "internalType": "string",
          "name": "role",
          "type": "string"
        },
        {
          "internalType": "string",
          "name": "race",
          "type": "string"
        },
        {
          "internalType": "string",
          "name": "country",
          "type": "string"
        },
        {
          "internalType": "uint256",
          "name": "householdID",
          "type": "uint256"
        },
        {
          "internalType": "bool",
          "name": "alive",
          "type": "bool"
        }
      ],
      "payable": false,
      "stateMutability": "view",
      "type": "function"
    },
    {
      "constant": true,
      "inputs": [],
      "name": "test",
      "outputs": [
        {
          "internalType": "uint256",
          "name": "",
          "type": "uint256"
        }
      ],
      "payable": false,
      "stateMutability": "view",
      "type": "function"
    }
  ],
  "bytecode": "0x6080604052600060015560026003553480156200001b57600080fd5b506040518060400160405280600781526020017f4443656e73757300000000000000000000000000000000000000000000000000815250600090805190602001906200006992919062000070565b506200011f565b828054600181600116156101000203166002900490600052602060002090601f016020900481019282601f10620000b357805160ff1916838001178555620000e4565b82800160010185558215620000e4579182015b82811115620000e3578251825591602001919060010190620000c6565b5b509050620000f39190620000f7565b5090565b6200011c91905b8082111562000118576000816000905550600101620000fe565b5090565b90565b6115fb806200012f6000396000f3fe608060405234801561001057600080fd5b50600436106100a95760003560e01c806378495bf81161007157806378495bf814610768578063a2f9eac614610786578063beadac03146109f6578063c0991a3714610a79578063f8a8fd6d14610a97578063fc9f7f2914610ab5576100a9565b80630349e115146100ae57806306fdde03146100f05780631a280ebd1461017357806345f86fa0146101bf5780634654ff851461030c575b600080fd5b6100da600480360360208110156100c457600080fd5b8101908080359060200190929190505050610af7565b6040518082815260200191505060405180910390f35b6100f8610b1f565b6040518080602001828103825283818151815260200191508051906020019080838360005b8381101561013857808201518184015260208101905061011d565b50505050905090810190601f1680156101655780820380516001836020036101000a031916815260200191505b509250505060405180910390f35b6101a96004803603604081101561018957600080fd5b810190808035906020019092919080359060200190929190505050610bbd565b6040518082815260200191505060405180910390f35b6101eb600480360360208110156101d557600080fd5b8101908080359060200190929190505050610bf8565b6040518085815260200180602001806020018473ffffffffffffffffffffffffffffffffffffffff1673ffffffffffffffffffffffffffffffffffffffff168152602001838103835286818151815260200191508051906020019080838360005b8381101561026757808201518184015260208101905061024c565b50505050905090810190601f1680156102945780820380516001836020036101000a031916815260200191505b50838103825285818151815260200191508051906020019080838360005b838110156102cd5780820151818401526020810190506102b2565b50505050905090810190601f1680156102fa5780820380516001836020036101000a031916815260200191505b50965050505050505060405180910390f35b610766600480360361012081101561032357600080fd5b810190808035906020019064010000000081111561034057600080fd5b82018360208201111561035257600080fd5b8035906020019184600183028401116401000000008311171561037457600080fd5b91908080601f016020809104026020016040519081016040528093929190818152602001838380828437600081840152601f19601f820116905080830192505050505050509192919290803590602001906401000000008111156103d757600080fd5b8201836020820111156103e957600080fd5b8035906020019184600183028401116401000000008311171561040b57600080fd5b91908080601f016020809104026020016040519081016040528093929190818152602001838380828437600081840152601f19601f8201169050808301925050505050505091929192908035906020019064010000000081111561046e57600080fd5b82018360208201111561048057600080fd5b803590602001918460018302840111640100000000831117156104a257600080fd5b91908080601f016020809104026020016040519081016040528093929190818152602001838380828437600081840152601f19601f8201169050808301925050505050505091929192908035906020019064010000000081111561050557600080fd5b82018360208201111561051757600080fd5b8035906020019184600183028401116401000000008311171561053957600080fd5b91908080601f016020809104026020016040519081016040528093929190818152602001838380828437600081840152601f19601f8201169050808301925050505050505091929192908035906020019064010000000081111561059c57600080fd5b8201836020820111156105ae57600080fd5b803590602001918460018302840111640100000000831117156105d057600080fd5b91908080601f016020809104026020016040519081016040528093929190818152602001838380828437600081840152601f19601f8201169050808301925050505050505091929192908035906020019064010000000081111561063357600080fd5b82018360208201111561064557600080fd5b8035906020019184600183028401116401000000008311171561066757600080fd5b91908080601f016020809104026020016040519081016040528093929190818152602001838380828437600081840152601f19601f82011690508083019250505050505050919291929080351515906020019092919080359060200190929190803590602001906401000000008111156106e057600080fd5b8201836020820111156106f257600080fd5b8035906020019184600183028401116401000000008311171561071457600080fd5b91908080601f016020809104026020016040519081016040528093929190818152602001838380828437600081840152601f19601f820116905080830192505050505050509192919290505050610d78565b005b610770611068565b6040518082815260200191505060405180910390f35b6107b26004803603602081101561079c57600080fd5b810190808035906020019092919050505061106e565b6040518089815260200180602001806020018060200180602001806020018881526020018715151515815260200186810386528d818151815260200191508051906020019080838360005b838110156108185780820151818401526020810190506107fd565b50505050905090810190601f1680156108455780820380516001836020036101000a031916815260200191505b5086810385528c818151815260200191508051906020019080838360005b8381101561087e578082015181840152602081019050610863565b50505050905090810190601f1680156108ab5780820380516001836020036101000a031916815260200191505b5086810384528b818151815260200191508051906020019080838360005b838110156108e45780820151818401526020810190506108c9565b50505050905090810190601f1680156109115780820380516001836020036101000a031916815260200191505b5086810383528a818151815260200191508051906020019080838360005b8381101561094a57808201518184015260208101905061092f565b50505050905090810190601f1680156109775780820380516001836020036101000a031916815260200191505b50868103825289818151815260200191508051906020019080838360005b838110156109b0578082015181840152602081019050610995565b50505050905090810190601f1680156109dd5780820380516001836020036101000a031916815260200191505b509d505050505050505050505050505060405180910390f35b6109fe6113bb565b6040518080602001828103825283818151815260200191508051906020019080838360005b83811015610a3e578082015181840152602081019050610a23565b50505050905090810190601f168015610a6b5780820380516001836020036101000a031916815260200191505b509250505060405180910390f35b610a81611477565b6040518082815260200191505060405180910390f35b610a9f61147d565b6040518082815260200191505060405180910390f35b610ae160048036036020811015610acb57600080fd5b8101908080359060200190929190505050611483565b6040518082815260200191505060405180910390f35b6000806005600084815260200190815260200160002060010180549050905080915050919050565b60008054600181600116156101000203166002900480601f016020809104026020016040519081016040528092919081815260200182805460018160011615610100020316600290048015610bb55780601f10610b8a57610100808354040283529160200191610bb5565b820191906000526020600020905b815481529060010190602001808311610b9857829003601f168201915b505050505081565b600080600560008581526020019081526020016000206001018381548110610be157fe5b906000526020600020015490508091505092915050565b6005602052806000526040600020600091509050806000015490806002018054600181600116156101000203166002900480601f016020809104026020016040519081016040528092919081815260200182805460018160011615610100020316600290048015610caa5780601f10610c7f57610100808354040283529160200191610caa565b820191906000526020600020905b815481529060010190602001808311610c8d57829003601f168201915b505050505090806003018054600181600116156101000203166002900480601f016020809104026020016040519081016040528092919081815260200182805460018160011615610100020316600290048015610d485780601f10610d1d57610100808354040283529160200191610d48565b820191906000526020600020905b815481529060010190602001808311610d2b57829003601f168201915b5050505050908060040160009054906101000a900473ffffffffffffffffffffffffffffffffffffffff16905084565b7ff4915122cc2b3d2dae9e7d77a78c2eb0cef7b55de5c725eea56e2027332489e160001b8780519060200120141580610dda57507f50ca8b53ea5277703bbfec8fbaede0fe14c4111c00a30c567d6f9988a1dc2eb060001b8580519060200120145b610de357600080fd5b60016000815480929190600101919050555060405180610100016040528060015481526020018a8152602001888152602001868152602001898152602001858152602001838152602001841515815250600460006001548152602001908152602001600020600082015181600001556020820151816001019080519060200190610e6e9291906114a1565b506040820151816002019080519060200190610e8b9291906114a1565b506060820151816003019080519060200190610ea89291906114a1565b506080820151816004019080519060200190610ec59291906114a1565b5060a0820151816005019080519060200190610ee29291906114a1565b5060c0820151816006015560e08201518160070160006101000a81548160ff021916908315150217905550905050600560008381526020019081526020016000206001016001549080600181540180825580915050906001820390600052602060002001600090919290919091505550336005600084815260200190815260200160002060040160006101000a81548173ffffffffffffffffffffffffffffffffffffffff021916908373ffffffffffffffffffffffffffffffffffffffff16021790555080600560008481526020019081526020016000206002019080519060200190610fd1929190611521565b5085600560008481526020019081526020016000206003019080519060200190610ffc929190611521565b506002600081548092919060010191905055503373ffffffffffffffffffffffffffffffffffffffff167f982bb66d9aa60573bc0a2066122e1466ecbc4c179a5e7c1c5b589345008ce69a836040518082815260200191505060405180910390a2505050505050505050565b60015481565b6004602052806000526040600020600091509050806000015490806001018054600181600116156101000203166002900480601f0160208091040260200160405190810160405280929190818152602001828054600181600116156101000203166002900480156111205780601f106110f557610100808354040283529160200191611120565b820191906000526020600020905b81548152906001019060200180831161110357829003601f168201915b505050505090806002018054600181600116156101000203166002900480601f0160208091040260200160405190810160405280929190818152602001828054600181600116156101000203166002900480156111be5780601f10611193576101008083540402835291602001916111be565b820191906000526020600020905b8154815290600101906020018083116111a157829003601f168201915b505050505090806003018054600181600116156101000203166002900480601f01602080910402602001604051908101604052809291908181526020018280546001816001161561010002031660029004801561125c5780601f106112315761010080835404028352916020019161125c565b820191906000526020600020905b81548152906001019060200180831161123f57829003601f168201915b505050505090806004018054600181600116156101000203166002900480601f0160208091040260200160405190810160405280929190818152602001828054600181600116156101000203166002900480156112fa5780601f106112cf576101008083540402835291602001916112fa565b820191906000526020600020905b8154815290600101906020018083116112dd57829003601f168201915b505050505090806005018054600181600116156101000203166002900480601f0160208091040260200160405190810160405280929190818152602001828054600181600116156101000203166002900480156113985780601f1061136d57610100808354040283529160200191611398565b820191906000526020600020905b81548152906001019060200180831161137b57829003601f168201915b5050505050908060060154908060070160009054906101000a900460ff16905088565b60608060046000600181526020019081526020016000206001018054600181600116156101000203166002900480601f0160208091040260200160405190810160405280929190818152602001828054600181600116156101000203166002900480156114695780601f1061143e57610100808354040283529160200191611469565b820191906000526020600020905b81548152906001019060200180831161144c57829003601f168201915b505050505090508091505090565b60025481565b60035481565b60066020528060005260406000206000915090508060000154905081565b828054600181600116156101000203166002900490600052602060002090601f016020900481019282601f106114e257805160ff1916838001178555611510565b82800160010185558215611510579182015b8281111561150f5782518255916020019190600101906114f4565b5b50905061151d91906115a1565b5090565b828054600181600116156101000203166002900490600052602060002090601f016020900481019282601f1061156257805160ff1916838001178555611590565b82800160010185558215611590579182015b8281111561158f578251825591602001919060010190611574565b5b50905061159d91906115a1565b5090565b6115c391905b808211156115bf5760008160009055506001016115a7565b5090565b9056fea265627a7a723158205826ca3e8292a7ec6cf4a6cafe2acbe199c1fe3ad37a87fce05945f0866fb35a64736f6c63430005110032",
  "source": "pragma solidity ^0.5.4;\r\n\r\n\r\ncontract Census {\r\n    string public name;\r\n    uint public personCount = 0;\r\n    uint public lasthouseholdID;\r\n    uint public test = 2;\r\n\r\n    mapping(uint => Person) public persons;\r\n    mapping(uint => Household) public households;\r\n    mapping(uint => ho) public hos;\r\n\r\n    struct Person {\r\n        uint id;\r\n        string name;\r\n        string ipfsHash;\r\n        \r\n        string role;\r\n        string race;\r\n        string country;\r\n        uint householdID;\r\n        bool alive;\r\n    }\r\n    struct Household {\r\n        uint hid;\r\n        uint[] members;\r\n        string encrypted_email;\r\n        string proofofkids;\r\n        address submitter;\r\n    }\r\n    struct ho\r\n           {\r\n               uint hid;\r\n               Person[] member;\r\n           }\r\nevent ProductCreated (\r\n    address indexed wallet,\r\n    uint _householdID \r\n);\r\n\r\n\r\n\r\n    constructor() public {\r\n        name = \"DCensus\";\r\n    }\r\n\r\n      function createPerson(string memory _name, string memory _race, string memory _ipfshash,string memory _proofofkidsipfshash, string memory _role, string memory _country, bool _alive, uint _householdID, string memory _encrypted_email) public {\r\n         // Require a valid photo\r\n         require(keccak256(bytes(_ipfshash)) != 0xf4915122cc2b3d2dae9e7d77a78c2eb0cef7b55de5c725eea56e2027332489e1 || keccak256(bytes( _role)) ==  0x50ca8b53ea5277703bbfec8fbaede0fe14c4111c00a30c567d6f9988a1dc2eb0);\r\n        \r\n        // Increment product count\r\n        \r\n        personCount ++;\r\n        // Create the product\r\n        persons[personCount] = Person(personCount, _name, _ipfshash, _role, _race, _country, _householdID, _alive);\r\n        households[_householdID].members.push(personCount);\r\n        households[_householdID].submitter = msg.sender;\r\n        households[_householdID].encrypted_email = _encrypted_email;\r\n        households[_householdID].proofofkids = _proofofkidsipfshash;\r\n       \r\n        \r\n        lasthouseholdID++;\r\n        // Trigger an event\r\n        emit ProductCreated(msg.sender,_householdID);\r\n    }\r\n        \r\n/*      function addmember(string memory _name, string memory _race, string memory _photourl,string memory _role, string memory _country, bool _alive, uint _householdID) public {\r\n        // Require a valid photo\r\n        \r\n        // require(bytes(_photourl).length > 0);\r\n\r\n     \r\n        // Increment product count\r\n        personCount ++;\r\n        // Create the product\r\n        households[_householdID].members.push(Person(personCount, _name, _photourl, _role, _race, _country,_householdID, _alive));\r\n        \r\n        // Trigger an event\r\n        //emit ProductCreated(productCount, _Persons, _race, _country);\r\n    } */\r\n    function getmemberslenght(uint _householdID) view public returns (uint) {\r\n        uint m; \r\n        m = households[_householdID].members.length; //it apeares you cannot directly return global varaibles\r\n        return m;\r\n    }\r\n    function getfamilymember(uint _householdID, uint _member) view public returns (uint) {\r\n        uint id;\r\n        id = households[_householdID].members[_member];\r\n        return id;\r\n    }\r\n// function familysubmit() public {\r\n//     require(households[lasthouseholdID].members.length > 0);\r\n// Householdadded[lasthouseholdID] = true ;\r\n// lasthouseholdID ++;\r\n// } \r\n\r\n     function getpersonsstruct() public returns(string memory) {\r\n           string memory m;\r\n         //   hos[0].member[0]=persons[1];\r\n           m = persons[1].name;\r\n           return m;\r\n    }\r\n}\r\n",
  "sourcePath": "/mnt/c/Users/m/Documents/GitHub/dcensuse/src/contracts/Census.sol",
  "compiler": {
    "name": "solc",
    "version": "0.5.17+commit.d19bba13.Emscripten.clang"
  },
  "schemaVersion": "3.2.5",
  "updatedAt": "2020-12-21T05:02:55.292Z",
  "networkType": "ethereum",
  "devdoc": {
    "methods": {}
  },
  "userdoc": {
    "methods": {}
  }
}